{
  "contractName": "SecretSanta",
  "abi": [
    {
      "inputs": [],
      "stateMutability": "nonpayable",
      "type": "constructor"
    },
    {
      "inputs": [],
      "name": "isRegistrationOpen",
      "outputs": [
        {
          "internalType": "bool",
          "name": "",
          "type": "bool"
        }
      ],
      "stateMutability": "view",
      "type": "function"
    },
    {
      "inputs": [],
      "name": "owner",
      "outputs": [
        {
          "internalType": "address",
          "name": "",
          "type": "address"
        }
      ],
      "stateMutability": "view",
      "type": "function"
    },
    {
      "inputs": [],
      "name": "openRegistration",
      "outputs": [],
      "stateMutability": "nonpayable",
      "type": "function"
    },
    {
      "inputs": [],
      "name": "closeRegistration",
      "outputs": [],
      "stateMutability": "nonpayable",
      "type": "function"
    },
    {
      "inputs": [],
      "name": "register",
      "outputs": [],
      "stateMutability": "nonpayable",
      "type": "function"
    },
    {
      "inputs": [],
      "name": "deregister",
      "outputs": [],
      "stateMutability": "nonpayable",
      "type": "function"
    },
    {
      "inputs": [],
      "name": "getParticipantCount",
      "outputs": [
        {
          "internalType": "uint256",
          "name": "",
          "type": "uint256"
        }
      ],
      "stateMutability": "view",
      "type": "function"
    },
    {
      "inputs": [],
      "name": "getAssignedGiftee",
      "outputs": [
        {
          "internalType": "address",
          "name": "",
          "type": "address"
        }
      ],
      "stateMutability": "view",
      "type": "function"
    }
  ],
  "bytecode": "0x60806040526001600060146101000a81548160ff02191690831515021790555034801561002b57600080fd5b50336000806101000a81548173ffffffffffffffffffffffffffffffffffffffff021916908373ffffffffffffffffffffffffffffffffffffffff160217905550610e2a8061007b6000396000f3fe608060405234801561001057600080fd5b50600436106100885760003560e01c80638da5cb5b1161005b5780638da5cb5b146100dd578063ad605729146100fb578063aff5edb114610119578063d06e4ee71461012357610088565b80631aa3a0081461008d5780633692cc8f146100975780637ab2af2b146100b55780637dc673bc146100d3575b600080fd5b61009561012d565b005b61009f6102dd565b6040516100ac9190610b38565b60405180910390f35b6100bd6103c0565b6040516100ca9190610b6e565b60405180910390f35b6100db6103d3565b005b6100e561087e565b6040516100f29190610b38565b60405180910390f35b6101036108a2565b6040516101109190610ba2565b60405180910390f35b6101216108af565b005b61012b610a62565b005b60011515600060149054906101000a900460ff1615151461014d57600080fd5b60011515600160003373ffffffffffffffffffffffffffffffffffffffff1673ffffffffffffffffffffffffffffffffffffffff16815260200190815260200160002060009054906101000a900460ff16151514156101ab57600080fd5b42336002805490506040516020016101c593929190610c26565b6040516020818303038152906040528051906020012060001c600460003373ffffffffffffffffffffffffffffffffffffffff1673ffffffffffffffffffffffffffffffffffffffff1681526020019081526020016000208190555060018060003373ffffffffffffffffffffffffffffffffffffffff1673ffffffffffffffffffffffffffffffffffffffff16815260200190815260200160002060006101000a81548160ff0219169083151502179055506002339080600181540180825580915050600190039060005260206000200160009091909190916101000a81548173ffffffffffffffffffffffffffffffffffffffff021916908373ffffffffffffffffffffffffffffffffffffffff160217905550565b6000801515600060149054906101000a900460ff161515146102fe57600080fd5b60011515600160003373ffffffffffffffffffffffffffffffffffffffff1673ffffffffffffffffffffffffffffffffffffffff16815260200190815260200160002060009054906101000a900460ff1615151461035b57600080fd5b600360003373ffffffffffffffffffffffffffffffffffffffff1673ffffffffffffffffffffffffffffffffffffffff16815260200190815260200160002060009054906101000a900473ffffffffffffffffffffffffffffffffffffffff16905090565b600060149054906101000a900460ff1681565b60008054906101000a900473ffffffffffffffffffffffffffffffffffffffff1673ffffffffffffffffffffffffffffffffffffffff163373ffffffffffffffffffffffffffffffffffffffff161461042b57600080fd5b60011515600060149054906101000a900460ff1615151461044b57600080fd5b60016002805490501161045d57600080fd5b60008060146101000a81548160ff0219169083151502179055506000600160028054905061048b9190610c92565b905060005b60018261049d9190610c92565b81101561065a576000600282815481106104ba576104b9610cc6565b5b9060005260206000200160009054906101000a900473ffffffffffffffffffffffffffffffffffffffff16905060006001846104f69190610cf5565b600460008473ffffffffffffffffffffffffffffffffffffffff1673ffffffffffffffffffffffffffffffffffffffff16815260200190815260200160002054846105419190610cf5565b61054b9190610d7a565b90506002838154811061056157610560610cc6565b5b9060005260206000200160009054906101000a900473ffffffffffffffffffffffffffffffffffffffff16600282815481106105a05761059f610cc6565b5b9060005260206000200160006101000a81548173ffffffffffffffffffffffffffffffffffffffff021916908373ffffffffffffffffffffffffffffffffffffffff16021790555081600284815481106105fd576105fc610cc6565b5b9060005260206000200160006101000a81548173ffffffffffffffffffffffffffffffffffffffff021916908373ffffffffffffffffffffffffffffffffffffffff1602179055505050808061065290610dab565b915050610490565b5060005b8181101561077f5760026001826106759190610cf5565b8154811061068657610685610cc6565b5b9060005260206000200160009054906101000a900473ffffffffffffffffffffffffffffffffffffffff1660036000600284815481106106c9576106c8610cc6565b5b9060005260206000200160009054906101000a900473ffffffffffffffffffffffffffffffffffffffff1673ffffffffffffffffffffffffffffffffffffffff1673ffffffffffffffffffffffffffffffffffffffff16815260200190815260200160002060006101000a81548173ffffffffffffffffffffffffffffffffffffffff021916908373ffffffffffffffffffffffffffffffffffffffff160217905550808061077790610dab565b91505061065e565b50600260008154811061079557610794610cc6565b5b9060005260206000200160009054906101000a900473ffffffffffffffffffffffffffffffffffffffff1660036000600284815481106107d8576107d7610cc6565b5b9060005260206000200160009054906101000a900473ffffffffffffffffffffffffffffffffffffffff1673ffffffffffffffffffffffffffffffffffffffff1673ffffffffffffffffffffffffffffffffffffffff16815260200190815260200160002060006101000a81548173ffffffffffffffffffffffffffffffffffffffff021916908373ffffffffffffffffffffffffffffffffffffffff16021790555050565b60008054906101000a900473ffffffffffffffffffffffffffffffffffffffff1681565b6000600280549050905090565b60011515600060149054906101000a900460ff161515146108cf57600080fd5b60011515600160003373ffffffffffffffffffffffffffffffffffffffff1673ffffffffffffffffffffffffffffffffffffffff16815260200190815260200160002060009054906101000a900460ff1615151461092c57600080fd5b6000600160003373ffffffffffffffffffffffffffffffffffffffff1673ffffffffffffffffffffffffffffffffffffffff16815260200190815260200160002060006101000a81548160ff02191690831515021790555060005b600280549050811015610a5f573373ffffffffffffffffffffffffffffffffffffffff16600282815481106109bf576109be610cc6565b5b9060005260206000200160009054906101000a900473ffffffffffffffffffffffffffffffffffffffff1673ffffffffffffffffffffffffffffffffffffffff161415610a4c5760028181548110610a1a57610a19610cc6565b5b9060005260206000200160006101000a81549073ffffffffffffffffffffffffffffffffffffffff0219169055610a5f565b8080610a5790610dab565b915050610987565b50565b60008054906101000a900473ffffffffffffffffffffffffffffffffffffffff1673ffffffffffffffffffffffffffffffffffffffff163373ffffffffffffffffffffffffffffffffffffffff1614610aba57600080fd5b60001515600060149054906101000a900460ff16151514610ada57600080fd5b6001600060146101000a81548160ff021916908315150217905550565b600073ffffffffffffffffffffffffffffffffffffffff82169050919050565b6000610b2282610af7565b9050919050565b610b3281610b17565b82525050565b6000602082019050610b4d6000830184610b29565b92915050565b60008115159050919050565b610b6881610b53565b82525050565b6000602082019050610b836000830184610b5f565b92915050565b6000819050919050565b610b9c81610b89565b82525050565b6000602082019050610bb76000830184610b93565b92915050565b6000819050919050565b610bd8610bd382610b89565b610bbd565b82525050565b60008160601b9050919050565b6000610bf682610bde565b9050919050565b6000610c0882610beb565b9050919050565b610c20610c1b82610b17565b610bfd565b82525050565b6000610c328286610bc7565b602082019150610c428285610c0f565b601482019150610c528284610bc7565b602082019150819050949350505050565b7f4e487b7100000000000000000000000000000000000000000000000000000000600052601160045260246000fd5b6000610c9d82610b89565b9150610ca883610b89565b925082821015610cbb57610cba610c63565b5b828203905092915050565b7f4e487b7100000000000000000000000000000000000000000000000000000000600052603260045260246000fd5b6000610d0082610b89565b9150610d0b83610b89565b9250827fffffffffffffffffffffffffffffffffffffffffffffffffffffffffffffffff03821115610d4057610d3f610c63565b5b828201905092915050565b7f4e487b7100000000000000000000000000000000000000000000000000000000600052601260045260246000fd5b6000610d8582610b89565b9150610d9083610b89565b925082610da057610d9f610d4b565b5b828206905092915050565b6000610db682610b89565b91507fffffffffffffffffffffffffffffffffffffffffffffffffffffffffffffffff821415610de957610de8610c63565b5b60018201905091905056fea2646970667358221220ff5abecaa7d646592bc30963b4bac9134c8ac4c4c03c1eb3e3c8dab08c688a7564736f6c634300080a0033",
  "immutableReferences": {},
  "source": "// SPDX-License-Identifier: MIT\npragma solidity >=0.4.16 <0.9.0;\n\ncontract SecretSanta {\n  address public owner;\n  bool public isRegistrationOpen = true;\n\n  mapping(address => bool) private isParticipant;\n  address[] private participants;\n  mapping(address => address) private giftAssignments;\n  mapping(address => uint256) private participantSeed;\n\n  constructor() {\n    owner = msg.sender;\n  }\n\n  modifier onlyOwner() {\n    require(msg.sender == owner);\n    _;\n  }\n\n  function openRegistration() public onlyOwner {\n    require(isRegistrationOpen == false);\n    // @TODO: require 0 gifts to have been transferred before re-opening\n\n    isRegistrationOpen = true;\n  }\n\n  function closeRegistration() public onlyOwner {\n    require(isRegistrationOpen == true);\n    require(participants.length > 1);\n\n    isRegistrationOpen = false;\n\n    uint256 mLength = participants.length - 1;\n\n    for (uint256 i = 0; i < mLength - 1; i++) {\n      address temp = participants[i];\n      uint256 n = (i + participantSeed[temp]) % (mLength + 1);\n      participants[n] = participants[i];\n      participants[i] = temp;\n    }\n\n    for (uint256 i = 0; i < mLength; i++) {\n      giftAssignments[participants[i]] = participants[i + 1];\n    }\n    giftAssignments[participants[mLength]] = participants[0];\n  }\n\n  function register() public {\n    require(isRegistrationOpen == true);\n    require(isParticipant[msg.sender] != true);\n\n    participantSeed[msg.sender] = uint256(\n      keccak256(\n        abi.encodePacked(block.timestamp, msg.sender, participants.length)\n      )\n    );\n    isParticipant[msg.sender] = true;\n    participants.push(msg.sender);\n  }\n\n  function deregister() public {\n    require(isRegistrationOpen == true);\n    require(isParticipant[msg.sender] == true);\n\n    isParticipant[msg.sender] = false;\n\n    for (uint256 i = 0; i < participants.length; i++) {\n      if (participants[i] == msg.sender) {\n        delete participants[i];\n        break;\n      }\n    }\n  }\n\n  function getParticipantCount() public view returns (uint256) {\n    return participants.length;\n  }\n\n  function getAssignedGiftee() public view returns (address) {\n    require(isRegistrationOpen == false);\n    require(isParticipant[msg.sender] == true);\n\n    return giftAssignments[msg.sender];\n  }\n}\n",
  "sourcePath": "/Users/brock/workspace/bridgetown-collective/secret-santa/contracts/SecretSanta.sol",
  "compiler": {
    "name": "solc",
    "version": "0.8.10+commit.fc410830.Emscripten.clang"
  },
  "schemaVersion": "3.4.3",
  "updatedAt": "2021-11-18T04:53:48.698Z",
  "devdoc": {
    "kind": "dev",
    "methods": {},
    "version": 1
  },
  "userdoc": {
    "kind": "user",
    "methods": {},
    "version": 1
  }
}