{
  "contractName": "SecretSanta",
  "abi": [
    {
      "inputs": [],
      "stateMutability": "nonpayable",
      "type": "constructor"
    },
    {
      "inputs": [],
      "name": "isRegistrationOpen",
      "outputs": [
        {
          "internalType": "bool",
          "name": "",
          "type": "bool"
        }
      ],
      "stateMutability": "view",
      "type": "function"
    },
    {
      "inputs": [],
      "name": "owner",
      "outputs": [
        {
          "internalType": "address",
          "name": "",
          "type": "address"
        }
      ],
      "stateMutability": "view",
      "type": "function"
    },
    {
      "inputs": [],
      "name": "openRegistration",
      "outputs": [],
      "stateMutability": "nonpayable",
      "type": "function"
    },
    {
      "inputs": [],
      "name": "closeRegistration",
      "outputs": [],
      "stateMutability": "nonpayable",
      "type": "function"
    },
    {
      "inputs": [],
      "name": "register",
      "outputs": [],
      "stateMutability": "nonpayable",
      "type": "function"
    },
    {
      "inputs": [],
      "name": "deregister",
      "outputs": [],
      "stateMutability": "nonpayable",
      "type": "function"
    },
    {
      "inputs": [],
      "name": "getParticipantCount",
      "outputs": [
        {
          "internalType": "uint256",
          "name": "",
          "type": "uint256"
        }
      ],
      "stateMutability": "view",
      "type": "function"
    },
    {
      "inputs": [],
      "name": "getAssignedGiftee",
      "outputs": [
        {
          "internalType": "address",
          "name": "",
          "type": "address"
        }
      ],
      "stateMutability": "view",
      "type": "function"
    }
  ],
  "bytecode": "0x60806040526001600060146101000a81548160ff02191690831515021790555034801561002b57600080fd5b50336000806101000a81548173ffffffffffffffffffffffffffffffffffffffff021916908373ffffffffffffffffffffffffffffffffffffffff1602179055506108a78061007b6000396000f3fe608060405234801561001057600080fd5b50600436106100885760003560e01c80638da5cb5b1161005b5780638da5cb5b146100dd578063ad605729146100fb578063aff5edb114610119578063d06e4ee71461012357610088565b80631aa3a0081461008d5780633692cc8f146100975780637ab2af2b146100b55780637dc673bc146100d3575b600080fd5b61009561012d565b005b61009f610267565b6040516100ac91906106bb565b60405180910390f35b6100bd610436565b6040516100ca91906106f1565b60405180910390f35b6100db610449565b005b6100e56104dd565b6040516100f291906106bb565b60405180910390f35b610103610501565b6040516101109190610725565b60405180910390f35b61012161050e565b005b61012b6105e5565b005b60011515600060149054906101000a900460ff1615151461014d57600080fd5b60011515600160003373ffffffffffffffffffffffffffffffffffffffff1673ffffffffffffffffffffffffffffffffffffffff16815260200190815260200160002060009054906101000a900460ff16151514156101ab57600080fd5b60018060003373ffffffffffffffffffffffffffffffffffffffff1673ffffffffffffffffffffffffffffffffffffffff16815260200190815260200160002060006101000a81548160ff0219169083151502179055506002339080600181540180825580915050600190039060005260206000200160009091909190916101000a81548173ffffffffffffffffffffffffffffffffffffffff021916908373ffffffffffffffffffffffffffffffffffffffff160217905550565b6000801515600060149054906101000a900460ff1615151461028857600080fd5b60011515600160003373ffffffffffffffffffffffffffffffffffffffff1673ffffffffffffffffffffffffffffffffffffffff16815260200190815260200160002060009054906101000a900460ff161515146102e557600080fd5b60005b60028054905081101561042e573373ffffffffffffffffffffffffffffffffffffffff16600282815481106103205761031f610740565b5b9060005260206000200160009054906101000a900473ffffffffffffffffffffffffffffffffffffffff1673ffffffffffffffffffffffffffffffffffffffff16141561041b576001600280549050610379919061079e565b8110156103d357600260018261038f91906107d2565b815481106103a05761039f610740565b5b9060005260206000200160009054906101000a900473ffffffffffffffffffffffffffffffffffffffff16915050610433565b60026000815481106103e8576103e7610740565b5b9060005260206000200160009054906101000a900473ffffffffffffffffffffffffffffffffffffffff16915050610433565b808061042690610828565b9150506102e8565b503390505b90565b600060149054906101000a900460ff1681565b60008054906101000a900473ffffffffffffffffffffffffffffffffffffffff1673ffffffffffffffffffffffffffffffffffffffff163373ffffffffffffffffffffffffffffffffffffffff16146104a157600080fd5b60011515600060149054906101000a900460ff161515146104c157600080fd5b60008060146101000a81548160ff021916908315150217905550565b60008054906101000a900473ffffffffffffffffffffffffffffffffffffffff1681565b6000600280549050905090565b60011515600060149054906101000a900460ff1615151461052e57600080fd5b60011515600160003373ffffffffffffffffffffffffffffffffffffffff1673ffffffffffffffffffffffffffffffffffffffff16815260200190815260200160002060009054906101000a900460ff1615151461058b57600080fd5b6000600160003373ffffffffffffffffffffffffffffffffffffffff1673ffffffffffffffffffffffffffffffffffffffff16815260200190815260200160002060006101000a81548160ff021916908315150217905550565b60008054906101000a900473ffffffffffffffffffffffffffffffffffffffff1673ffffffffffffffffffffffffffffffffffffffff163373ffffffffffffffffffffffffffffffffffffffff161461063d57600080fd5b60001515600060149054906101000a900460ff1615151461065d57600080fd5b6001600060146101000a81548160ff021916908315150217905550565b600073ffffffffffffffffffffffffffffffffffffffff82169050919050565b60006106a58261067a565b9050919050565b6106b58161069a565b82525050565b60006020820190506106d060008301846106ac565b92915050565b60008115159050919050565b6106eb816106d6565b82525050565b600060208201905061070660008301846106e2565b92915050565b6000819050919050565b61071f8161070c565b82525050565b600060208201905061073a6000830184610716565b92915050565b7f4e487b7100000000000000000000000000000000000000000000000000000000600052603260045260246000fd5b7f4e487b7100000000000000000000000000000000000000000000000000000000600052601160045260246000fd5b60006107a98261070c565b91506107b48361070c565b9250828210156107c7576107c661076f565b5b828203905092915050565b60006107dd8261070c565b91506107e88361070c565b9250827fffffffffffffffffffffffffffffffffffffffffffffffffffffffffffffffff0382111561081d5761081c61076f565b5b828201905092915050565b60006108338261070c565b91507fffffffffffffffffffffffffffffffffffffffffffffffffffffffffffffffff8214156108665761086561076f565b5b60018201905091905056fea26469706673582212201b98cbe38d45cb0b462d09b633b246327a9e7da346175faac22ee9db7e62551664736f6c634300080a0033",
  "immutableReferences": {},
  "source": "pragma solidity >=0.4.16 <0.9.0;\n\ncontract SecretSanta {\n  address public owner;\n  bool public isRegistrationOpen = true;\n\n  mapping(address => bool) private participants;\n  address[] private giftChain;\n\n  constructor() {\n    owner = msg.sender;\n  }\n\n  modifier onlyOwner() {\n    require(msg.sender == owner);\n    _;\n  }\n\n  function openRegistration() public onlyOwner {\n    require(isRegistrationOpen == false);\n    // @TODO: require 0 gifts to have been transferred before re-opening\n\n    isRegistrationOpen = true;\n  }\n\n  function closeRegistration() public onlyOwner {\n    require(isRegistrationOpen == true);\n    isRegistrationOpen = false;\n  }\n\n  function register() public {\n    require(isRegistrationOpen == true);\n    require(participants[msg.sender] != true);\n\n    participants[msg.sender] = true;\n\n    // @TODO: randomize this insertion\n    giftChain.push(msg.sender);\n  }\n\n  function deregister() public {\n    require(isRegistrationOpen == true);\n    require(participants[msg.sender] == true);\n\n    participants[msg.sender] = false;\n\n    // @TODO: remove from giftChain\n  }\n\n  function getParticipantCount() public view returns (uint256) {\n    return giftChain.length;\n  }\n\n  function getAssignedGiftee() public view returns (address) {\n    require(isRegistrationOpen == false);\n    require(participants[msg.sender] == true);\n\n    for (uint256 i = 0; i < giftChain.length; i++) {\n      if (giftChain[i] == msg.sender) {\n        if (i < giftChain.length - 1) {\n          return giftChain[i + 1];\n        }\n\n        return giftChain[0];\n      }\n    }\n\n    // @TODO: work out corner cases - this shouldn't be possible though\n    return msg.sender;\n  }\n}\n",
  "sourcePath": "/Users/brock/workspace/bridgetown-collective/secret-santa/contracts/SecretSanta.sol",
  "compiler": {
    "name": "solc",
    "version": "0.8.10+commit.fc410830.Emscripten.clang"
  },
  "schemaVersion": "3.4.3",
  "updatedAt": "2021-11-18T02:46:00.996Z",
  "devdoc": {
    "kind": "dev",
    "methods": {},
    "version": 1
  },
  "userdoc": {
    "kind": "user",
    "methods": {},
    "version": 1
  }
}